{
  "contractName": "SocialNetwork",
  "abi": [
    {
      "anonymous": false,
      "inputs": [
        {
          "indexed": false,
          "internalType": "uint256",
          "name": "_user",
          "type": "uint256"
        },
        {
          "indexed": false,
          "internalType": "uint256",
          "name": "_timestamp",
          "type": "uint256"
        }
      ],
      "name": "addUserEvent",
      "type": "event"
    },
    {
      "anonymous": false,
      "inputs": [
        {
          "indexed": false,
          "internalType": "uint256",
          "name": "_user1",
          "type": "uint256"
        },
        {
          "indexed": false,
          "internalType": "uint256",
          "name": "_user2",
          "type": "uint256"
        },
        {
          "indexed": false,
          "internalType": "uint256",
          "name": "_timestamp",
          "type": "uint256"
        }
      ],
      "name": "messageSendEvent",
      "type": "event"
    },
    {
      "anonymous": false,
      "inputs": [
        {
          "indexed": false,
          "internalType": "uint256",
          "name": "_user",
          "type": "uint256"
        },
        {
          "indexed": false,
          "internalType": "uint256",
          "name": "_timestamp",
          "type": "uint256"
        }
      ],
      "name": "removeUserEvent",
      "type": "event"
    },
    {
      "constant": true,
      "inputs": [],
      "name": "getUsers",
      "outputs": [
        {
          "internalType": "uint256[]",
          "name": "_users",
          "type": "uint256[]"
        }
      ],
      "payable": false,
      "stateMutability": "view",
      "type": "function"
    },
    {
      "constant": true,
      "inputs": [
        {
          "internalType": "uint256",
          "name": "_user",
          "type": "uint256"
        }
      ],
      "name": "getUser",
      "outputs": [
        {
          "internalType": "bool",
          "name": "_value",
          "type": "bool"
        }
      ],
      "payable": false,
      "stateMutability": "view",
      "type": "function"
    },
    {
      "constant": false,
      "inputs": [
        {
          "internalType": "uint256",
          "name": "_user",
          "type": "uint256"
        }
      ],
      "name": "addUser",
      "outputs": [],
      "payable": false,
      "stateMutability": "nonpayable",
      "type": "function"
    },
    {
      "constant": false,
      "inputs": [
        {
          "internalType": "uint256",
          "name": "_user",
          "type": "uint256"
        }
      ],
      "name": "removeUser",
      "outputs": [],
      "payable": false,
      "stateMutability": "nonpayable",
      "type": "function"
    },
    {
      "constant": false,
      "inputs": [
        {
          "internalType": "uint256",
          "name": "_user1",
          "type": "uint256"
        },
        {
          "internalType": "uint256",
          "name": "_user2",
          "type": "uint256"
        }
      ],
      "name": "sendMessage",
      "outputs": [],
      "payable": false,
      "stateMutability": "nonpayable",
      "type": "function"
    }
  ],
  "bytecode": "0x608060405234801561001057600080fd5b5061076b806100206000396000f3fe608060405234801561001057600080fd5b50600436106100565760003560e01c8062ce8e3e1461005b57806311dc4703146100ba57806318ade57d146100e8578063b0467deb14610120578063e1d8173614610166575b600080fd5b610063610194565b6040518080602001828103825283818151815260200191508051906020019060200280838360005b838110156100a657808201518184015260208101905061008b565b505050509050019250505060405180910390f35b6100e6600480360360208110156100d057600080fd5b81019080803590602001909291905050506101ec565b005b61011e600480360360408110156100fe57600080fd5b810190808035906020019092919080359060200190929190505050610418565b005b61014c6004803603602081101561013657600080fd5b8101908080359060200190929190505050610589565b604051808215151515815260200191505060405180910390f35b6101926004803603602081101561017c57600080fd5b81019080803590602001909291905050506105b3565b005b606060008054806020026020016040519081016040528092919081815260200182805480156101e257602002820191906000526020600020905b8154815260200190600101908083116101ce575b5050505050905090565b6001600082815260200190815260200160002060009054906101000a900460ff1661027f576040517f08c379a000000000000000000000000000000000000000000000000000000000815260040180806020018281038252601e8152602001807f546869732075736572206973206e6f7420696e207468652073797374656d000081525060200191505060405180910390fd5b6001600082815260200190815260200160002060006101000a81549060ff021916905560008090505b60008054905081101561041357816000600160008054905003815481106102cb57fe5b906000526020600020015414156103375760008054809190600190036102f191906106c3565b507f84c7f2adba0aab42f347b7d66232b1346cdcb51e84ce9ed483c5a7002da9cfcc8242604051808381526020018281526020019250505060405180910390a150610415565b816000828154811061034557fe5b906000526020600020015414156104065760008190505b6001600080549050038110156103af576000600182018154811061037c57fe5b90600052602060002001546000828154811061039457fe5b9060005260206000200181905550808060010191505061035c565b5060008054809190600190036103c591906106c3565b507f84c7f2adba0aab42f347b7d66232b1346cdcb51e84ce9ed483c5a7002da9cfcc8242604051808381526020018281526020019250505060405180910390a15b80806001019150506102a8565b505b50565b6001600083815260200190815260200160002060009054906101000a900460ff166104ab576040517f08c379a000000000000000000000000000000000000000000000000000000000815260040180806020018281038252601f8152602001807f54686520757365722031206973206e6f7420696e207468652073797374656d0081525060200191505060405180910390fd5b6001600082815260200190815260200160002060009054906101000a900460ff1661053e576040517f08c379a000000000000000000000000000000000000000000000000000000000815260040180806020018281038252601f8152602001807f54686520757365722032206973206e6f7420696e207468652073797374656d0081525060200191505060405180910390fd5b7fd91fc6aada15806785ffe554ec78b0605aa9f2bd6e1620889144c6c31d485bfc82824260405180848152602001838152602001828152602001935050505060405180910390a15050565b60006001600083815260200190815260200160002060009054906101000a900460ff169050919050565b6001600082815260200190815260200160002060009054906101000a900460ff161561062a576040517f08c379a00000000000000000000000000000000000000000000000000000000081526004018080602001828103825260228152602001806107156022913960400191505060405180910390fd5b600180600083815260200190815260200160002060006101000a81548160ff02191690831515021790555060008190806001815401808255809150509060018203906000526020600020016000909192909190915055507f97f38df41f43b7183340be99ed8b3a43c0efcd8ed78f3e5824e0598be9d6d59a8142604051808381526020018281526020019250505060405180910390a150565b8154818355818111156106ea578183600052602060002091820191016106e991906106ef565b5b505050565b61071191905b8082111561070d5760008160009055506001016106f5565b5090565b9056fe54686973207573657220697320616c726561647920696e207468652073797374656da265627a7a72315820d23e30e67c750c402f217d8ec859c6468d0affa71e76a24f4f514e24a8ff94f364736f6c63430005100032",
  "source": "pragma solidity 0.5.16;\n\ncontract SocialNetwork {\n    uint256 [] private usersID;\n    mapping(uint256 => bool) users;\n    \n    event addUserEvent(uint256 _user, uint256 _timestamp);\n    event removeUserEvent(uint256 _user, uint256 _timestamp);\n    event messageSendEvent(uint256 _user1, uint256 _user2, uint256 _timestamp);\n    \n    function getUsers() public view returns (uint256 [] memory _users){\n        return usersID;\n    }\n    \n    function getUser(uint256 _user) public view returns (bool _value){\n        return users[_user];\n    }\n    \n    function addUser(uint256 _user) public {\n        require(!users[_user], \"This user is already in the system\");\n        users[_user] = true;\n        usersID.push(_user);\n        emit addUserEvent(_user, block.timestamp);\n    }\n    \n    function removeUser(uint256 _user) public {\n        require(users[_user], \"This user is not in the system\");\n        delete users[_user];\n        for (uint i = 0; i < usersID.length; i++){\n            if (usersID[usersID.length-1] == _user){\n                usersID.length--;\n                emit removeUserEvent(_user, block.timestamp);\n                return;\n            }\n            else if(usersID[i] == _user){\n                for (uint j = i; j < usersID.length-1; j++){\n                    usersID[j] = usersID[j+1];\n                }\n                usersID.length--;            \n                emit removeUserEvent(_user, block.timestamp);\n            }\n        }\n    }\n\n    function sendMessage(uint256 _user1, uint256 _user2) public{\n        require(users[_user1], \"The user 1 is not in the system\");\n        require(users[_user2], \"The user 2 is not in the system\");\n        emit messageSendEvent(_user1, _user2, block.timestamp);\n    }\n}\n",
  "sourcePath": "/home/danilo/blockchainProject/contracts/SocialNetwork.sol",
  "compiler": {
    "name": "solc",
    "version": "0.5.16+commit.9c3226ce.Emscripten.clang"
  },
  "schemaVersion": "3.1.0",
  "updatedAt": "2020-05-01T11:46:42.465Z",
  "devdoc": {
    "methods": {}
  },
  "userdoc": {
    "methods": {}
  }
}